:100000000EC0189518951895189518951895189567
:1000100018951895189518951895189518958FEDA9
:100020008DBFC8EBE0EA4E2EDD275D2EA89584B784
:10003000082E877F84BF88E1992781BD91BDEEE7B7
:10004000F0E0A0E6B0E088278D933197E9F76624C9
:10005000B89AB99ABA9ABB9ABC9886E886B980E8E9
:1000600087B984E190E0A3E68D939C93C09807B193
:10007000007F026007B93AD1A1E68D939C93A1E677
:100080000D911C910E3D53E0150781E008F480E0CE
:100090008F93A1E60D911C91003E52E0150781E07F
:1000A00010F009F080E09F91892B882309F40CC09F
:1000B000709160007F7B7093600070916000706849
:1000C000709360004DC00AC07091600070647093BE
:1000D0006000709160007F777093600000C0709145
:1000E00060007F7770936000C29AA3E6ED91FC9167
:1000F000DFD007B1007F026007B9F8D0A1E68D9389
:100100009C93A1E60D911C910E3D53E0150781E0F3
:1001100008F480E08F93A1E60D911C91003E52E01F
:10012000150781E010F009F080E09F91892B88236A
:1001300009F40BC0709160007F7B70936000709138
:1001400060007068709360000AC070916000706415
:1001500070936000709160007F777093600000C0C2
:1001600007B1007F026007B9C1D0A1E68D939C93CF
:10017000A1E60D911C910E3D53E0150781E008F4B6
:1001800080E08F93A1E60D911C91003E52E015078F
:1001900081E010F009F080E09F91892B882309F419
:1001A00006C0709160007F7B7093600005C0709105
:1001B0006000706470936000A0E68C9186FB81E023
:1001C0000EF080E08F93A0E68C9187FB81E00EF427
:1001D00080E09F918923882309F401C014C0A0E620
:1001E0008C9186FB81E00EF080E08F93A0E68C91ED
:1001F00087FB81E00EF080E09F918923882309F43A
:1002000001C006C042C0C298C198C39AC09AA8CF84
:10021000709160007F7770936000C29AA3E6ED91C1
:10022000FC9146D007B1007F026007B95FD0A1E61C
:100230008D939C93A1E60D911C910E3D53E0150703
:1002400081E008F480E08F93A1E60D911C91003EBF
:1002500052E0150781E010F009F080E09F91892BB2
:10026000882309F40CC0709160007F7B709360005C
:100270007091600070687093600007C005C0709155
:1002800060007064709360006BCF70916000706864
:1002900070936000C098C29AC19AC39888EC90E0AD
:1002A00016D0C19884E690E012D05ACFF894FFCFD0
:1002B00088EE93E00CD03197D9F708953197F1F794
:1002C0000895689462F80895E89462F80895EF93A9
:1002D000FF93EE27E82BE92B31F0E0EDF7E03197C3
:1002E000F1F70197D1F7FF91EF910895369A36997A
:0E02F000FECF369A3699FECF84B195B10895AF
:00000001FF
